:100000000EC015C014C013C012C011C010C00FC064
:100010000EC00DC00CC00BC00AC009C008C011241E
:100020001FBECFE5D1E0DEBFCDBF88D09DC0E8CFF9
:10003000FC019081862F809598239083ABECB0E0F3
:100040001197F1F700C00000908140FF02C0962B8D
:1000500001C098239083ABECB0E01197F1F700C09A
:100060000000908141FF02C0962B01C0982390832D
:10007000ABECB0E01197F1F700C00000908142FFB7
:1000800002C0962B01C098239083ABECB0E011978F
:10009000F1F700C00000908143FF02C0962B01C021
:1000A00098239083ABECB0E01197F1F700C000000B
:1000B000908144FF02C0962B01C098239083ABEC43
:1000C000B0E01197F1F700C00000908145FF02C039
:1000D000962B01C098239083ABECB0E01197F1F719
:1000E00000C00000908146FF02C0962B01C09823FB
:1000F0009083ABECB0E01197F1F700C0000047FF30
:1001000004C08081862B808303C0908198239083D4
:100110008BEC90E00197F1F700C000008081862B06
:100120008083ABECB0E01197F1F700C000008BECDE
:1001300090E00197F1F700C00000089580E886BDC7
:1001400016BCC29ABA9AC49ABC98B499FECF44E637
:1001500064E088E390E06CDFB49BFECF45E764E0A9
:0C01600088E390E065DFF1CFF894FFCF5A
:00000001FF
