:100000000EC015C014C013C012C011C010C00FC064
:100010000EC00DC00CC00BC00AC009C008C011241E
:100020001FBECFE5D1E0DEBFCDBF02D090C0E8CF8C
:1000300080E886BD16BCC19AB99AC09AB89AC29A8D
:10004000BA9A80E08F3FA9F0C198982F22E42A95B0
:10005000F1F700C09F5F9F3FC9F7C19A90E09817E2
:1000600031F022E42A95F1F700C09F5FF8CF8F5F4F
:10007000E9CF80E0C19AC098982F22E42A95F1F741
:1000800000C09F5F9F3FC9F7C198C09A90E0981742
:1000900031F022E42A95F1F700C09F5FF8CF81E0AC
:1000A000890F8F3F39F780E0C09AC298982F22E4D9
:1000B0002A95F1F700C09F5F9F3FC9F7C098C29A89
:1000C00090E0981731F022E42A95F1F700C09F5F85
:1000D000F8CF81E0890F8F3F39F780E0C29AC0984E
:1000E000C198982F22E42A95F1F700C09F5F9F3FA7
:1000F000C9F7C29AC09AC19A90E0981731F022E4E9
:100100002A95F1F700C09F5FF8CF81E0890F8F3FFC
:1001100029F780E0C29AC09AC19A982F22E42A95C2
:10012000F1F700C09F5F9F3FC9F7C298C098C19880
:1001300090E0981731F022E42A95F1F700C09F5F14
:10014000F8CF81E0890F8F3F29F780E07DCFF894C9
:02015000FFCFDF
:00000001FF
