:1000000010C02AC029C028C027C026C025C024C0CF
:1000100023C022C021C020C01FC01EC01DC01CC0E4
:100020001BC011241FBECFE5D1E0DEBFCDBF10E065
:10003000A0E6B0E0E4EDF2E002C005900D92A23837
:10004000B107D9F720E0A2E8B0E001C01D92A03AC4
:10005000B207E1F701D13CC1D3CFDC01FA01108234
:100060008C918623E9F78CE18A95F1F7000088E30B
:100070008A95F1F700C08C91862319F08081816008
:10008000808388E38A95F1F700C08C91862319F06C
:1000900080818260808388E38A95F1F700C08C912B
:1000A000862319F080818460808388E38A95F1F744
:1000B00000C08C91862319F080818860808388E35A
:1000C0008A95F1F700C08C91862319F080818061B8
:1000D000808388E38A95F1F700C08C91862319F01C
:1000E00080818062808388E38A95F1F700C08C91DB
:1000F000862319F080818064808388E38A95F1F7F4
:1001000000C08C91862319F080818068808388E309
:100110008A95F1F700C08CE18A95F1F70000089507
:10012000FC019081862F80959823908398E39A957F
:10013000F1F700C0908140FF02C0962B01C09823C8
:10014000908398E39A95F1F700C0908141FF02C037
:10015000962B01C09823908398E39A95F1F700C0FD
:10016000908142FF02C0962B01C09823908398E3B0
:100170009A95F1F700C0908143FF02C0962B01C011
:100180009823908398E39A95F1F700C0908144FFFB
:1001900002C0962B01C09823908398E39A95F1F7BB
:1001A00000C0908145FF02C0962B01C09823908328
:1001B00098E39A95F1F700C0908146FF02C0962B14
:1001C00001C09823908398E39A95F1F700C047FF08
:1001D00004C08081862B808303C090819823908304
:1001E00088E38A95F1F700C08081862B808398E3AD
:1001F0009A95F1F700C088E38A95F1F700C0089559
:10020000FF920F931F93CF93DF938C01F62EEA0199
:1002100010929F0010929E00E0919E00F0919F002E
:10022000EC0FFD1F40816F2DC8017ADF20919E00E9
:1002300030919F002F5F3F4F30939F0020939E008F
:10024000FE01E20FF31F80818111E6CFDF91CF9194
:100250001F910F91FF90089580E886BD16BCD99A32
:10026000D19A10929D0010929C004BE950E061E001
:1002700089E390E0F2DE40E650E062E08BE390E05C
:10028000BFDF20919C0030919D00C90101969093A1
:100290009D0080939C00F901EE57FF4F40919B0019
:1002A0004083489721F410929D0010929C0042E8F0
:1002B00050E062E08BE390E0A3DF42E262E08BE398
:1002C00090E02EDF4AE062E08BE390E029DFCDCFC3
:0402D000F894FFCFD0
:1002D40068656C6C6F2E667464692E34342E6563A5
:1002E400686F2E633A20796F752074797065642085
:0202F4002200E6
:00000001FF
