:1000000011C020C01FC01EC01DC01CC01BC01AC014
:1000100019C018C017C016C015C014C013C06E6F29
:100020006465200011241FBECFE5D1E0DEBFCDBF47
:1000300020E0A0E6B0E001C01D92A436B207E1F7CF
:100040002DD15CC1DDCFDC01FA0110828C918623B9
:10005000E9F785E88A95F1F7000087EC90E00197D1
:10006000F1F700C000008C91862319F08081816037
:10007000808387EC90E00197F1F700C000008C913D
:10008000862319F080818260808387EC90E001975D
:10009000F1F700C000008C91862319F08081846004
:1000A000808387EC90E00197F1F700C000008C910D
:1000B000862319F080818860808387EC90E0019727
:1000C000F1F700C000008C91862319F080818061D7
:1000D000808387EC90E00197F1F700C000008C91DD
:1000E000862319F080818062808387EC90E00197FD
:1000F000F1F700C000008C91862319F080818064A4
:10010000808387EC90E00197F1F700C000008C91AC
:10011000862319F080818068808387EC90E00197C6
:10012000F1F700C0000095E89A95F1F700000895F6
:10013000FC019081862F809598239083A7ECB0E0F6
:100140001197F1F700C00000908140FF02C0962B8C
:1001500001C098239083A7ECB0E01197F1F700C09D
:100160000000908141FF02C0962B01C0982390832C
:10017000A7ECB0E01197F1F700C00000908142FFBA
:1001800002C0962B01C098239083A7ECB0E0119792
:10019000F1F700C00000908143FF02C0962B01C020
:1001A00098239083A7ECB0E01197F1F700C000000E
:1001B000908144FF02C0962B01C098239083A7EC46
:1001C000B0E01197F1F700C00000908145FF02C038
:1001D000962B01C098239083A7ECB0E01197F1F71C
:1001E00000C00000908146FF02C0962B01C09823FA
:1001F0009083A7ECB0E01197F1F700C0000047FF33
:1002000004C08081862B808303C0908198239083D3
:1002100087EC90E00197F1F700C000008081862B09
:100220008083A7ECB0E01197F1F700C0000087ECE5
:1002300090E00197F1F700C000000895CF93DF939D
:10024000EA011092630010926200E0916200F09166
:100250006300EC0FFD1F44914093610060E188E36F
:1002600090E066DF80916200909163000196909328
:10027000630080936200809161008111E6CFDF917D
:10028000CF910895C0982FEF80E792E021508040F1
:100290009040E1F700C00000C09A089580E886BD54
:1002A00016BCC49ABC98C09AB89A40E650E068E080
:1002B00086E390E0C8DEE6DF809160008033A9F736
:1002C000BC9A4EE150E060E188E390E0B7DF4091F6
:1002D000600060E188E390E02BDF4AE060E188E3C2
:1002E00090E026DF2FEF80E792E0215080409040A1
:1002F000E1F700C00000C6DFBC98D7CFF894FFCF6D
:00000001FF
