:100000000EC01DC01CC01BC01AC019C018C017C02C
:1000100016C015C014C013C012C011C010C01124E6
:100020001FBECFE5D1E0DEBFCDBF20E0A0E6B0E04F
:1000300001C01D92A136B207E1F788D0DAC0E0CF47
:10004000FC019081862F809598239083ABECB0E0E3
:100050001197F1F700C00000908140FF02C0962B7D
:1000600001C098239083ABECB0E01197F1F700C08A
:100070000000908141FF02C0962B01C0982390831D
:10008000ABECB0E01197F1F700C00000908142FFA7
:1000900002C0962B01C098239083ABECB0E011977F
:1000A000F1F700C00000908143FF02C0962B01C011
:1000B00098239083ABECB0E01197F1F700C00000FB
:1000C000908144FF02C0962B01C098239083ABEC33
:1000D000B0E01197F1F700C00000908145FF02C029
:1000E000962B01C098239083ABECB0E01197F1F709
:1000F00000C00000908146FF02C0962B01C09823EB
:100100009083ABECB0E01197F1F700C0000047FF1F
:1001100004C08081862B808303C0908198239083C4
:100120008BEC90E00197F1F700C000008081862BF6
:100130008083ABECB0E01197F1F700C000008BECCE
:1001400090E00197F1F700C00000089580E886BDB7
:1001500016BCC29ABA9A83E087B987E886B941E0AB
:1001600064E088E390E06CDF8FE19EE40197F1F7B3
:1001700000C0000042E064E088E390E061DF8FE1CE
:100180009EE40197F1F700C0000043E064E088E3DB
:1001900090E056DF8FE19EE40197F1F700C0000088
:1001A00044E064E088E390E04BDF8FE19EE4019758
:1001B000F1F700C00000369A3699FECF44B1409363
:1001C000600064E088E390E03BDF8FE19EE401970C
:1001D000F1F700C0000045B14093600064E088E39F
:1001E00090E02EDF8FE19EE40197F1F700C0000060
:0601F000B6CFF894FFCF2A
:00000001FF
